S01400004574684D6F746F727341726D2E737265634B
S1130000B0900120F5020000F1020000F1020000AE
S1130010F1020000F1020000F10200000000000003
S1130020000000000000000000000000F1020000D9
S1130030F102000000000000F1020000AD800000A9
S1130040F1020000F1020000F1020000F1020000E0
S1130050F1020000F1020000F1020000F1020000D0
S1130060F1020000F1020000F1020000410F000063
S1130070F1020000F1020000F1020000F1020000B0
S1130080F1020000F1020000F1020000F1020000A0
S1130090F1020000F1020000F1020000F102000090
S11300A0F1020000F1020000F1020000F102000080
S11300B0F1020000F1020000F1020000F102000070
S11300C0F1020000F1020000F1020000F102000060
S11300D0F1020000F1020000F1020000F102000050
S11300E0F1020000F1020000000000000000000026
S11300F000000000AD0E0000F1020000F10200005B
S1130100F1020000F1020000F1020000F10200001F
S1130110F1020000F1020000F1020000F10200000F
S1130120F1020000F1020000F1020000F1020000FF
S1130130F1020000F1020000F1020000F1020000EF
S1130140F1020000F1020000F1020000F1020000DF
S1130150F1020000F1020000F1020000F1020000CF
S1130160F1020000F1020000F1020000F1020000BF
S1130170F1020000F1020000000000000000000095
S1130180F1020000F1020000F1020000F10200009F
S1130190510A0000F1020000F1020000F102000027
S11301A0F1020000F1020000F1020000F10200007F
S11301B0F1020000F1020000F1020000F10200006F
S11301C0F1020000F1020000F1020000F10200005F
S11301D0F1020000F1020000F1020000F10200004F
S11301E0F1020000F1020000F1020000F10200003F
S11301F0F1020000F1020000F1020000F10200002F
S1130200F1020000F1020000F1020000F10200001E
S1130210F1020000F1020000F1020000F10200000E
S1130220F1020000F1020000F1020000F1020000FE
S1130230F1020000F1020000F1020000F1020000EE
S1130240F1020000F1020000F1020000F1020000DE
S1130250F1020000F1020000F1020000F1020000CE
S1130260F102000010B5054C237833B9044B13B1E7
S11302700448AFF300800123237010BD80000020E8
S11302800000000004D500000C4B43B10C480D499C
S113029010B5AFF300800C48036823B910BD0A48B9
S11302A0036833B97047094B002BF7D0BDE8104001
S11302B01847064B002BF5D0184700BF000000007C
S11302C004D500008400002004D5000000000000D4
S11302D010B5044B9847044B9847044BBDE81040B5
S11302E0184700BF69050000D9830000910600008B
S11302F0FEE7000008B5144A144B9A4218D1144B77
S1130300144A002193421CD3134A144B22F07F0257
S11303109A60D3F8882042F47002C3F88820BFF3AF
S11303204F8FBFF36F8F0E4B98470E4B9847FEE7E6
S11303300D49043A8B42E2D252F8040F43F8040BFD
S1130340F8E743F8041BDDE704D5000000000020B3
S113035080000020B09000200000000000ED00E0CC
S1130360F9830000E98000007400002030B54A1CC5
S1130370C4B2C0F34712164804F01F0300EBC210C6
S113038007D1184490F8403003F0FE0380F8403061
S113039030BDC5185B0895F8402002F0FE021844F1
S11303A042F0010285F8402090F8303014F0010F3B
S11303B019BF03F00F0343EA011101F00F0103F029
S11303C0F00314BFC9B2194380F8301030BD00BF28
S11303D00080004110B5054C05495B20A047234629
S11303E004495C20BDE81040184700BF6D030000BD
S11303F002005B0002005C00064B4022C3F8A02010
S11304004322C3F88C20044A536943F400535361D4
S1130410704700BF001C00400008004010B5054BA9
S11304209847054B0549064800229847054BBDE807
S113043010401847F903000065090000003400402B
S1130440E87F0020D503000010B5054C0549302095
S1130450A047234604493120BDE81040184700BF97
S11304606D0300000200300002003100064B402200
S1130470C3F80C214322C3F88C20044A136A43F0C6
S113048002031362704700BF001C004000080040D4
S113049010B5054B9847054B054906480022984777
S11304A0054BBDE8104018476D04000065090000C5
S11304B000040043F47F00204904000010B50F49F4
S11304C00F4C4B20A0470F494C20A0470E490D204C
S11304D0A0470E490C20A0470D495420A0470D49C0
S11304E00F20A0470C491220A0470C491320A04715
S11304F023460B491120BDE8104018470B004B0060
S11305006D0300000B004C000B000D000B000C00F1
S11305100B0054000B000F000B0012000B00130023
S11305200B001100044B1A6942F480421A61DA6923
S113053042F00402DA6170470008004010B5054B30
S11305409847054B054906489847064BBDE81040B7
S1130550184700BF25050000790700000008004285
S113056000800020BD04000010B50B4B98470B4AD7
S1130570536943F400735361094B984709490A4B83
S113058002460A4898470A4B98470A4B98470A4B31
S1130590BDE81040184700BFF10900000008004002
S11305A03D0F000000240040C10800001C80002012
S11305B01D040000910400003D05000001608280DC
S11305C000207047F7B504460E4615460DF10603A4
S11305D00A46084F81880068B84748B9BDF8063014
S11305E0A1882068044C2B433246ADF80630A0475E
S11305F003B0F0BDF9070000E90700004FF40072F2
S11306000021014B184700BFC505000037B50C4653
S11306100DF106038188064D00680122A84720B920
S1130620BDF80630C3F38003237003B030BD00BFB0
S1130630F907000010B5054C054B204698472146A4
S113064000220448044BBDE81040184700800020F5
S113065081070000E07F0020BD05000037B5094B8D
S1130660094898470028FDD1074D084C0DF10701B2
S11306702846A04718B99DF80730002BF6D003B0E0
S113068030BD00BFFD050000E07F00200D06000026
S1130690074B08491022C3F88820C3F8A8104FF06C
S11306A04041C3F8A810C3F89820034B184700BF73
S11306B00080004110000040350600000E4A08B5D5
S11306C042610E4B0E4A82616A2283F835204FF450
S11306D0C0629A850B4A11689288A3F833200622D7
S11306E083F82E2046F66562C3F82F10DA86064B8F
S11306F09847002008BD00BFF17B0000388000202F
S1130700ED1000009C000020C510000010B588B05A
S113071008AB002243F8042D05920692084A0168AA
S1130720116081889180074A0292074A0192074A20
S1130730009205A906AA064C0648A04708B010BDB9
S11307409C000020FD7C0000BD060000008000200D
S11307509D3C000038800020004B1847852700008E
S11307600368184743681847436903B1184770473B
S1130770836903B118477047004B18479D0A00006E
S1130780004B1847450B0000004B1847550B000061
S1130790004B1847550C0000004B1847490D00004A
S11307A0004B1847A50D000010B431B101290DD03C
S11307B06FF00C005DF8044B70474261002A054A53
S11307C0054B5DF8044B08BF002218478261002ADC
S11307D0024AF5E769070000B50D00007107000043
S11307E0004B1847DD0D000010B4024CA4465DF820
S11307F0044B6047FD0D000010B4024CA4465DF8A4
S1130800044B6047350E0000F0B505681DB90F4B69
S1130810BDE8F0401847D1F808E02C460026C2F1A4
S1130820010C6368A768934295BFDB1963449B1A64
S1130830DB19734507D22368264613B93046044BA7
S1130840E6E71C46EDE7A542F8D1E0E79F09000082
S1130850A70900002DE9F0470669037E44690136C3
S1130860DA070546066110D4037E9B070DD4DFF832
S11308704880DFF8489000F1140724B16368A26847
S1130880F31A934207D2BDE8F0872B7E43F00203AC
S11308902B76BDE8F0873846C047237C012B04D172
S11308A06660324621463846C847D5F814A0E36846
S11308B0204698475446E0E7AF09000009080000C5
S11308C010B5044B044698470020034B2061236075
S11308D010BD00BFF10E0000550800002DE9F843DB
S11308E00F4C0F46164600F10805A1462846A047BE
S11308F00028FBD0DFF830800024395D2846C0474B
S11309002846C8470028FBD00134B442F5D3054E2D
S11309102846B0470028FBD02046BDE8F88300BF36
S1130920A7100000B1100000991000002DE9F84351
S1130930DFF82890DFF828800F461646002400F1DF
S113094008052846C8470028FBD02846C047385524
S11309500134B442F5D32046BDE8F883BB1000004F
S11309609F10000010B5054B04460830984718B98D
S1130970034B6360034B236010BD00BF791000007C
S11309802D090000DD08000008B50830014B984728
S1130990002008BD8510000008600020704703682F
S11309A00B600160704703680B6001607047036867
S11309B00BB11A680260184670470000044B1968AE
S11309C0024609B903491960186802441A6070475D
S11309D0A4000020B09001204FF0FF3070474FF486
S11309E000534B600020704701207047002070477F
S11309F010B5094A13889BB21380084B9847084BDB
S1130A009847084B9847084B984740F6FF70074BA8
S1130A10BDE81040184700BF004000417D0E0000B3
S1130A20910E0000710E0000A90E0000310A0000B2
S1130A30C30707D5044B054A1A6243F6FD72596889
S1130A401142FCD1704700BF001C004001010100AD
S1130A5013B5114C206803685A6900921A6A01920E
S1130A605A6A009A92060AD5009A5A61636804EB9E
S1130A70C303DB7BDB0902D0436803B19847019BC6
S1130A809B0703D52068836803B198472368019ABC
S1130A901B681A6202B010BDC00000201023F0B51C
S1130AA001600B60214B4B600022214BCA600B613B
S1130AB040F20113C1F8B820C1F8BC301D4B03F15A
S1130AC020049C608024DA60DC7303F2FC541C6113
S1130AD0C0245A615A60DC75C3F8D82B03F53E6410
S1130AE003F54667154607EB02161651A618083299
S1130AF0802A7560F7D193F8582C186042F00202EE
S1130B0083F8582C0C4A0D4BC2F868530C4ACA613E
S1130B104FF480128C61C3F88820BFF34F8FBFF36A
S1130B206F8F0020C3F888219A60F0BD0301100084
S1130B3004070200C0000020B811002000E100E01A
S1130B40C80000200268136843F00C0313600020FF
S1130B50704700002DE9F74F3B4CD4F8D83B04EB29
S1130B60C3038046DB7BDB09164613D0D4F8D83B9D
S1130B7004EBC3035B7BDB090CD1D4F8D82B531CE7
S1130B80012B88BF02F1FF3304EBC303DA7B42F08D
S1130B908002DA73636804EBC303DB7BDB0950D0A8
S1130BA040F2DC539E420AD96268531C012B88BF71
S1130BB002F1FF3304EBC303DB7BDB0941D0636841
S1130BC0C4F8D83BDFF888B0204B0D4601F6B83A9C
S1130BD040F2DC594E4560680193374628BF4F46C2
S1130BE029463A4609FB00B098476268019B04EB2A
S1130BF0C202F61BD76001BF626804EBC202517BDC
S1130C0041F0800108BF517362680132626062681A
S1130C10022A05D100226260E27D42F04002E275C0
S1130C201EB105F2DC555545D4D1BFF34F8FD8F82A
S1130C300020136843F400731360002003B0BDE880
S1130C40F08F6FF01B00F9E7C00000205F84000004
S1130C50E00000202DE9F84F0B4637493748174686
S1130C604FF0FF3500248846D1F8682322440F2A28
S1130C7088BF103A00EBC20292F8E06BF6071ED56B
S1130C8092F8E56B16F0400F18BF2546F60904F1FB
S1130C90010611D0B5F1FF3F0ED0B2F8E42BC2F338
S1130CA00C02974228BF17464FF00009CA46B245C6
S1130CB00DD14846BDE8F88F102E3446D4D16A1CB5
S1130CC001D1264600E02E464FF0FF34ECE7611CCC
S1130CD017D0AA4515D3A24513D897B1802FD8F8B9
S1130CE068131748BB4628BF4FF0800B00EBC111B7
S1130CF05A461846134B984703465B44D944A7EB1E
S1130D000B07D8F868230D4901EBC2020AF1010A66
S1130D1092F8E01B6FF3000182F8E01BD8F8682317
S1130D200132C8F86823D8F86823102A04BF0022C7
S1130D30C8F86823BBE700BFB8110020C00000203A
S1130D40200D00205F840000F0B5144C144F0020E7
S1130D50014602462546D7F8683313440F2B88BF53
S1130D60103BDB00E61896F8E0EB1EF0010F13D001
S1130D7096F8E56B760600D431B1E918B1F8E41BB6
S1130D80C1F30C01084401212B4493F8E53BDB0932
S1130D9002D10132102ADED1F0BD00BFC000002014
S1130DA0B8110020024B4FF480129A60704700BFC4
S1130DB000E100E051B101290DD1426003688021B6
S1130DC012B1996200207047D962FBE70368826020
S1130DD002209862F6E76FF00C007047036810B5C4
S1130DE003EBC1001468C0F888402A319488D28883
S1130DF0C0F88C4043F82120002010BD10B50068D5
S1130E00920443F0A043046802F4F80243F400336C
S1130E10C9051A4301F0786144F010040A430460E0
S1130E20426383685B07FCD5036823F01003036007
S1130E30002010BD10B50068920402F4F8020468A2
S1130E4042F0C042C90542F4003201F0786144F036
S1130E5010040A430460426382685207FCD5426B63
S1130E601A80036823F010030360002010BD000003
S1130E70014B01225A71704700080040034BDA69A4
S1130E8002F47C52DA6101221A74704700140040A3
S1130E90034B044A9A611A699207FCD5704700BF54
S1130EA000100040062600037047000007B50C4AF6
S1130EB09378DBB20193019B990707D5094B1B6813
S1130EC023B15068984703B05DF804FB019BDB072E
S1130ED0F9D5044B5B68002BF5D0014AF1E700BF5C
S1130EE0000002417480002003690B42FCD170476A
S1130EF0024638B50125D1600E4C0D80084648F2F3
S1130F000301A0472946D068A047D06848F280036F
S1130F10038048F20301A047D068202303626021C4
S1130F20A047D3684FF480715981034B00201A60A5
S1130F3038BD00BFE90E00002415002000207047D2
S1130F40074B10B51C68E3689B89DB0507D523684C
S1130F500BB120469847E3684FF480729A8110BD24
S1130F6024150020C3690B42FCD17047036823F0A9
S1130F70020303600321014B184700BF650F000003
S1130F8070B50B4D06460FCD88B06C460FC495E87E
S1130F900F0084E80F0000205DF82030B34202D136
S1130FA0C0B208B070BD01300828F5D10020F8E7C0
S1130FB0089600002DE9F0412B4B2C4F2C4E044693
S1130FC09847E369421F5542554113F0010F17D169
S1130FD0182303FB05730321DA6B204602F01C027D
S1130FE0B04723689B0705D52046224B984702212A
S1130FF02046B04742F00102226003212046B04758
S113100020460121B047182202FB05722046D2F87F
S11310103C80C4F800800321B047136C63601F2137
S11310202046B047536CA36018F4C04F1DBFA3897A
S1131030B2F8481092F84A20B2F848301FBF61F362
S11310400C03A381A38962F34F33A381182303FB09
S11310500575002095F84B30A37395F84C3084F84F
S11310603030BDE8F08100BF810F00000896000019
S1131070650F00006D0F00000160014B0846184722
S1131080B50F00000068036843F002030360032106
S1131090004B1847650F00000368996270470368A6
S11310A0986AC0B270470368187E00F00100704768
S11310B00368187EC0F3400070470368187EC0F3CD
S11310C0800070471FB50346446A53F82F0F019000
S11310D09B88ADF80830002101AA2046024B8DF808
S11310E00C10984704B010BDE10700002DE9F04151
S11310F04A89476A088982420D4606D14968144BD9
S1131100384698470020BDE8F081C31C4FF6FC70B8
S11311101840104B98470646B0B1DFF840800346AC
S11311202C46628961681846C04762892468034670
S11311301344002CF5D12A89054B3146384698478B
S11311403046054B9847DDE74FF0FF30BDE8F081AE
S113115089070000DD390000993800005F84000031
S11311602DE9F047DFF87C80DFF87C90184F0546C6
S11311706E6A3046C04781B239B300220320C847A3
S11311800446D8B1428941683046B84763689889B3
S1131190104B9847B0F5006F03D040F60603984211
S11311A008D12B692946204698470028E0D00A48F0
S11311B00A4B984720460A4B9847D9E7024601460E
S11311C03B463046BDE8F0471847BDE8F08700BF0E
S11311D091070000ED110000709600009585000055
S11311E0993F0000990700003940000040BA80B2DE
S11311F0704740BA80B2704700BA7047004B184736
S1131200F9110000037B8B421FBF0023017343735A
S113121043837047038B30B54469E51885F8F010B3
S1131220991C013314FA83F3018383F8F02030BD51
S1131230028B436910B51344541C048383F8F010E3
S113124010BD038B426930B5D4180D0A84F8F050F0
S11312509C1C013312FA83F3048383F8F01030BD2D
S1131260038B426930B5D4180D0E84F8F0505C1C21
S113127012FA84F40D0C84F8F0509C1C12FA84F4D5
S11312800D0A84F8F0501C1D033312FA83F304830F
S113129083F8F01030BD00002DE9F0410C461646ED
S11312A0804638B94F4B50495048514C4FF4D162A5
S11312B0A047FEE739B94B4B4E494C484C4C40F2E1
S11312C08962A047FEE700224FF49A7110464A4B08
S11312D09847206130B9494B494898474FF0FF304F
S11312E0BDE8F081627B474B12B91A6801321A607B
S11312F0196821603E4B4448984723695F686761D9
S113130001233B707B70002598F82E30BB70FD7074
S11313103E4B2068984763697860082E1D725D72A1
S11313209D72DD721D735D739D73DD7307D0042E92
S113133005D0032E06D1227B043A012A02D8D8F81C
S11313400420DA6000221A745A749A74DA741A75D2
S11313505A759A75DA751A765A769A76DA7698F80C
S11313602E5003F11C0190B2854288BF08EB0200A5
S113137002F101028CBF90F82F000020102A01F81E
S1131380010BF0D103F12C0203F16C01002002F8EF
S1131390010B8A42FBD103F1EC00002102F8011B8E
S11313A08242FBD16FF07D00632283F8ED0053206D
S11313B083F8EC2083F8EF2083F8EE0000222183E9
S11313C0F03303F8012B0132442AFAD101222046DA
S11313D035210F4B9847204631460E4B9847002045
S11313E0BDE8F08195960000B8960000D7960000FD
S11313F085840000FF9600003940000095850000B8
S11314001D9700000000002048970000F91100001B
S1131410151200003112000070B5846A90F836206D
S113142090F837300F4E014605460F48B047082163
S113143020460E4B9847002204F1240128460C4B09
S1131440984710B10B480C4B9847637B0B4801330A
S11314506373012363834FF4FA713346BDE870402C
S1131460184700BF85840000609700000512000043
S1131470897A00007B97000095850000A3970000FF
S1131480F0B5054685B04B4E30B94B4B4B494C48F3
S113149040F2A332B047FEE7846A34B9464B494967
S11314A0474840F2A532B047FEE790F8381090F86C
S11314B0373090F83620009101464348B047616BBD
S11314C04F1C14D04148B047626B3C2102F11E030B
S11314D0B3FBF1F34FF6FF718B4228BF0B46002B91
S11314E056D04FF47A71A38351433948B047A16B66
S11314F0481C14D03748B047A26B3C2102F11E03AC
S1131500B3FBF1F34FF6FF718B4228BF0B46002B60
S113151040D04FF47A71E38351432D48B047E38BB5
S1131520A28B9A4202D30BB10023A383A37B002B8B
S113153032D0A36A0293E36A03932BB9636A029AD3
S1131540134043F0807303932746234857F8241F1E
S1131550B047394604AF2846204B984757F8081D32
S11315601F48B047394604AF28461E4B984757F8E2
S1131570041D1D48B047394628461C4B9847284649
S11315801B4B98470A2120461A4B984705B0F0BDDB
S11315900123A6E70123BCE794F824301A0601D4FA
S11315A0FF23C7E7BF2B8CBF6FF07F434FF6FF735A
S11315B0C0E700BF8584000095960000D097000026
S11315C0D7960000E9970000019800001E980000DB
S11315D04598000070980000969800005D3B00005C
S11315E0AF980000393C0000C8980000013C00009E
S11315F0C93D00000512000010B538B90D4B0E4965
S11316000E480F4C40F2E762A047FEE7038B4269A5
S1131610591C13440183FF2183F8F0100021038B2C
S1131620432B00D910BD5C1C1344048383F8F010D1
S1131630F5E700BF95960000E1980000D7960000FA
S11316408584000010B5044638B9084B0849094898
S1131650094C40F2D362A047FEE7006908B1074B8A
S1131660984700232361636110BD00BF9596000075
S113167003990000D796000085840000993F00007C
S1131680F7B5846A254F06462548B8470421204605
S1131690244B9847032221463046234B984705465E
S11316A0002839D1022239212046204B9847B18D98
S11316B01F4B2046984720461E4B9847218B206994
S11316C01D4BF03189B29847009643231B4A216988
S11316D060681B4EB04720461A4B98471A48B847D3
S11316E0617B1A480131C9B2092998BFC1EB411382
S11316F061739DBF01EB8301C90089B242F210718D
S113170001F2F3134FF4FA7293FBF2F36383104B79
S11317109847284603B0F0BD0E48E0E795850000E1
S11317202199000005120000991200001512000012
S113173043120000F9150000B14100006CAC000038
S1131740B1710000451600002F9900007399000044
S113175085840000469900002DE9F341846A344DE4
S113176007463448A8470023636206212046324BCB
S11317709847012221463846304B984706460028B0
S113178053D12F48DFF8F080A847022239212046A0
S1131790C0472C4BB98D2046984704223721204658
S11317A0C047DFF8D88001212046C04703212046E6
S11317B0C0471C212046C04706212046C047224B73
S11317C0204698472148A847218B214B2069F031B6
S11317D089B298471F48A847009743231E4A2169A6
S11317E060681E4FB8471E48A84720461D4B9847BF
S11317F01D48A847617B1D480131C9B2052998BF1E
S11318004FF47A73617394BF03FA01F14EF66021C9
S113181001F2F3134FF4FA7293FBF2F36383144B64
S11318209847304602B0BDE8F0811248E1E700BFB6
S113183095850000A199000005120000991200008E
S1131840B199000043120000F9150000CF9900007F
S1131850B1410000EB9900006CAC0000B1710000D4
S1131860309A0000451600004D9A0000959A000039
S113187085840000669A00001512000031120000F1
S11318802DE9F74F846A90F8381090F8362090F8D4
S113189037303B4E0091054601463A48DFF8149133
S11318A0B04701212046384B984703222146284659
S11318B0364B98470746002860D1DFF8FC80DFF8F4
S11318C0FCB0DFF8FCA0022239212046C047304B8F
S11318D0A98D20469847042232212046C047606AD9
S11318E0D84701462046D047042236212046C04727
S11318F0206AD84701462046D04704223721204693
S1131900C047DFF8C08001212046C047032120469C
S1131910C0471C212046C04706212046C047204618
S11319201C4B9847218B20691B4BF03189B2984797
S113193000954323194A21696068194DA847204638
S1131940184B98471848C847617B18480131C9B2F9
S1131950052998BF4FF47A73617394BF03FA01F1B8
S11319604EF6602101F2F3134FF4FA7293FBF2F393
S11319706383B047384603B0BDE8F08F0C48E2E714
S113198085840000C59A0000051200009912000029
S113199043120000F9150000B14100006CAC0000D6
S11319A0B171000045160000E49A0000299B000074
S11319B0FC9A00009585000015120000FD1100003E
S11319C061120000311200002DE9F341846A2D4EAA
S11319D007462D48B047032120462C4B9847032245
S11319E0214638462A4B98470546002847D102220B
S11319F039212046DFF8CC80C047264B4FF41071C4
S1131A0020469847042232212046C047224B606A70
S1131A109847224B0146204698472046204B98473A
S1131A20218B20691F4BF03189B2984700974323DB
S1131A301D4A216960681D4FB84720461C4B9847D2
S1131A401C48B047617B1C480131C9B2092998BFC1
S1131A50C1EB411361739DBF01EB8301C90089B2DE
S1131A6042F2107101F2F3134FF4FA7293FBF2F3A2
S1131A706383124B9847284602B0BDE8F0811048B2
S1131A80DFE700BF95850000579B000005120000AA
S1131A909912000043120000FD11000061120000C1
S1131AA0F9150000B14100006CAC0000B1710000F8
S1131AB045160000659B0000A99B0000858400007A
S1131AC07C9B0000151200002DE9F04F8DB0D0F87A
S1131AD028B059785668A94D0446BDF85800924676
S1131AE01A780290D87801909B780093A4480B460A
S1131AF05146A847BAF80A10A248A847BAF80810ED
S1131B00A148A847BAF80A302B2B2F4603D89F4880
S1131B109F4B98472CE03178022918D194F82EC0B5
S1131B2004F12F0506F11C000021CBB29C4511D80D
S1131B307068984DA847DBF80030984221D070684F
S1131B40A847DBF8002001469348B84710E09348C3
S1131B50A8470DE015F8012B10F801EB72450B4670
S1131B6001F10101E1D0CDF800E019468C48B847F5
S1131B700023CBF8083050468A4B98470DB0BDE897
S1131B80F08F894B4FF00008C3F80480A3F8088055
S1131B90C3F80080BAF80A302B2B1BD9DAF80430CA
S1131BA0BAF80890CBF80830F023CDF810A0049AC6
S1131BB052899A4203D9049A5268079265E19B1AA2
S1131BC0A9EB0209049A126804929BB21FFA89F9DC
S1131BD0002AECD175489BE7049A1268002A00F0A9
S1131BE08382526812785FE1362900F09C8010D815
S1131BF0342900F08E80352940F06681012A00F0F6
S1131C00E9806B4B6B496C485C4C40F29552A047A1
S1131C10FEE73A2900F091803B2940F05581042ADF
S1131C2000F0DC80624B65496348544C40F2A15299
S1131C30A047FEE7591E002589B24FF0FF362A4619
S1131C40023112FA81F292B20692002D00F0E9807C
S1131C5002339BB2099300230B93594B0596F31857
S1131C600893059B099A9B1B02EB8303089A5278FD
S1131C709BB2002A40F0D580042D2A460BA928BF28
S1131C80042204984F4FB847042D40F2BD80AB079F
S1131C9000F0A880464B4C494748384C40F2B452B7
S1131CA0A047FEE7042A52D0414B44494248334CF2
S1131CB040F27C52A047FEE7032A4CD83C4B4349F0
S1131CC03D482E4C40F28152A047FEE70022910786
S1131CD007D0374B3E493848284C40F28652A0473B
S1131CE0FEE7082A154628BF0825954237D9304B08
S1131CF036493148214C40F28952A047FEE7042A74
S1131D0030D02B4B2D492C481C4C40F28D52A0470F
S1131D10FEE7012A2AD0264B26492748174C40F2D1
S1131D209152A047FEE7042A24D0214B234922489C
S1131D30124C40F29952A047FEE7042A4AD01C4BA9
S1131D401E491D480D4C40F29D52A047FEE7154622
S1131D501946062674E719460726042570E719462E
S1131D6008266DE715461946032669E71546194600
S1131D70002665E715461946022661E785840000BA
S1131D80D79B0000179C0000289C00003D9C00008D
S1131D9095850000FD110000C69C0000629C0000B7
S1131DA08A9C0000993F000084800020D69D00009A
S1131DB0959600001C9D0000D7960000019D000030
S1131DC08380002089430000459D00000A9D000097
S1131DD04C9D000015461946164631E7154619462E
S1131DE005262DE7089A0B98012302F8013F9C4B26
S1131DF008929847059A9B4B43F822001346043DEA
S1131E000133EDB205932CE72BD10B98964B9847F1
S1131E100B90964B059901225A54924B0B9A43F816
S1131E202120049B069A5B899A422DD3D21AA9EBEE
S1131E30030992B21FFA89F94A4506921FD38B4BC4
S1131E401A781E46002A4BD1B8F1000F5AD1884D9A
S1131E508848A84773782A46002B65D18648A84746
S1131E6086E6012D07D0854B85498648864C40F28D
S1131E70BE52A047FEE79DF82C300B93C9E7049BA4
S1131E801B6804935B680793069B079AD15CFF2940
S1131E90D5D04B45D3D2049840895A1C8242BFF610
S1131EA09BAE079A1A44527833293FF428AF3FF681
S1131EB09BAE01293FF4F6AEFFF4BCAE03293FF418
S1131EC0FBAE06293FF403AF6F4D704806920593AD
S1131ED0A847059B069A19464FF0FF360025AFE642
S1131EE0604A1168002501291D7006D16848604BBD
S1131EF098474FF0EC096C2357E6022908D165484E
S1131F005B4B98474FF000084FF06C092C234CE6CC
S1131F10032905D16048564B98474FF00108E8E77C
S1131F20594B5E4898478FE7DFF8389199F80430A9
S1131F30052B4F4638D15A48A8479BF80C30012B43
S1131F402BD1A56AF378C5F82880C5F82C8013B185
S1131F50D9F80C302B633379D3B13B696B63737954
S1131F60CBB17B69AB63AB681B696B62B37923B19B
S1131F703B4BB86998470123A862AB73F3791BB153
S1131F80F869374B9847E862464B20469847EFE597
S1131F902B6B5B08E2E72B6BE4E7033B022B3FF67A
S1131FA0E7AD2046404BF1E7062B2CD19BF80C30D3
S1131FB0D91E022902D9012B7FF4DAAD3B48324EF7
S1131FC0904794F8381094F83620A56A94F837307E
S1131FD0374800912146B0472046364B984736494A
S1131FE0364B204698473449354B2046984732496A
S1131FF0344B204698472846334B0C219847334BA3
S113200020469847B4E5022B7FF4B2AD9BF80C3020
S1132010062B7FF4ADAD2E48A847ABF81A8094F890
S1132020381094F83730A76A94F83620294800917C
S1132030154D2146A847B3787BB1094BD9F8080060
S11320409847014638622448A847BB682348196961
S11320507962A8472046224BD3E72146214877E5F9
S1132060F911000090800020FD1100008480002000
S1132070958500000C9E00002F9E000095960000A0
S1132080599D0000D796000085840000259D00001E
S11320906C9D0000829D0000999D0000B99D000088
S11320A0599E000019140000811400006B9E00006A
S11320B07D9E0000013E000070AC00005D3B00000E
S11320C0013C0000393C00000512000059170000D3
S11320D0A09E0000CC9E0000F19E0000159F000011
S11320E0811800003C9F000033293FF40AAE0CD84D
S11320F001293FF4D9ADFFF49DAD03293FF4DEADD2
S113210006293FF4E3AD0022DEE636293FF40DAEA6
S113211006D834293FF4FFAD35293FF472ADF2E718
S11321203A293FF40CAE3B293FF47CADEBE700BF0A
S1132130F7B50F46054638B92E4B2F492F48304C7A
S113214040F22632A047FEE72E482F4EB047AB6A36
S1132150002B4CD01B7B082B49D13968284C2B48C9
S1132160A047AB6A3A685B6A9A4227463FD128483F
S1132170B047AC6A2748B0470C212046264B984705
S1132180042221462846254B984700282DD10422B5
S113219032212046224B9847224B606A9847224BB3
S11321A00146204698472046204B9847218B2069BA
S11321B01F4BF03189B29847009543231D4A21698A
S11321C060681D4DA84720461C4B98471C48B047E3
S11321D0637B1C48013363731423638342F21071DD
S11321E03B4603B0BDE8F04018471748EFE703B09B
S11321F0F0BD00BF95960000DB970000D796000065
S113220085840000FB9F0000958500000CA0000061
S11322103EA0000082A000000512000099120000F8
S113222015120000FD11000061120000F9150000F4
S1132230B14100006CAC0000B17100004516000013
S113224091A00000D9A00000ABA00000F7B5846AFB
S1132250264F06462648B84705212046254B984771
S1132260032221463046244B9847054600283AD19C
S1132270022239212046214B9847B18D204B20461C
S1132280984720461F4B9847218B20691E4BF031FD
S113229089B298470096432304F1200221696068BB
S11322A01A4EB04720461A4B98471A48B847617BE4
S11322B019480131C9B2092998BFC1EB41136173AF
S11322C09DBF01EB8301090189B244F6206101F24B
S11322D0F3134FF4FA7293FBF2F363830F4B9847B3
S11322E0284603B0F0BD0E48E0E700BF9585000026
S11322F008A1000005120000991200001512000048
S113230043120000F9150000B1410000B171000052
S11323104516000015A1000056A1000085840000A8
S11323202AA100002DE9F8431F4B2048204C1D68CA
S1132330204E214FDFF89880A0470DB9BDE8F883FF
S1132340AB6ABBB1DA8B511E012AD98314D11B4865
S1132350A047D5F828901A48A04799F80C3003F004
S1132360FB02012A01D00A2B04D11648A047164BC0
S1132370284698472D68E0E79A8B511E012A9983D5
S1132380F8D13046A047D5F828903846A04799F8A8
S11323900C3003F0FB02012A01D00A2BEAD140469B
S11323A0A0472846094BE4E77C90002083A1000065
S11323B095850000E4A1000002A2000095A10000A0
S11323C0B3A10000C5A10000811600004D22000049
S11323D014A200002DE9F341846A2E4F05462E48CD
S11323E0B847002120462D4B98470023236263629F
S11323F0A362E362A363636323630722214628463F
S1132400274B98470646002842D12046254BDFF843
S1132410C4809847218B2069234BF03189B29847B7
S11324200095432304F1200221696068C0472046D7
S11324301E4B98471E48B847617B1E480131C9B2FC
S1132440092998BFC1EB411361739DBF01EB83015F
S1132450C90089B242F210714FF4FA7201F2F31317
S113246093FBF2F36383144B98472846134B984726
S113247028461349134B984728461149124B98474D
S113248028460F49114B9847304602B0BDE8F08109
S11324900F48D0E79585000032A200000512000025
S11324A099120000F9150000B14100004516000022
S11324B041A2000090A2000085840000013E0000BB
S11324C070AC00005D3B0000013C0000393C0000A2
S11324D062A20000B1710000F8B52C4B2C4F1C68AF
S11324E02C4D04B9F8BDA36A23B15A8B012A03D930
S11324F0013A5A832468F4E7FCD100225A8338460F
S1132500A847A66A2448A847337B0C2B01D0062B86
S113251004D12248A8472046214B08E0012B0ED1C4
S11325202048A847737B052B03D81F4B20469847A8
S1132530E0E71E48A84720461D4B9847EBE7082BC9
S113254009D11C48A847737B012B204694BF1A4B22
S11325501A4B9847CEE7052B04D11948A8472046C3
S1132560184BE4E7042B09D11748A847737B082BC1
S113257002D82046154BDAE71548DBE7032BB9D11F
S1132580737B012B2046C7D8124BD0E77C900020E8
S1132590BFA2000095850000E0A20000EFA20000A9
S11325A05917000014A300008118000047A300007D
S11325B0D523000079A30000191400008114000041
S11325C0A9A300004D220000DAA300008116000038
S11325D00CA40000C919000010B538B90F4B1049FC
S11325E01048114C40F2CC42A047FEE790F8353039
S11325F0846A23F0080380F835300C480C4B984764
S11326005CB1606818B10B4B9847002363602046A7
S11326100021094BBDE81040184710BD95960000F5
S113262033A40000D7960000858400004CA4000069
S113263095850000A973000005120000F7B5044653
S1132640374F30B9374B3849384840F27A22B847C7
S1132650FEE790F8381090F8373090F83620856A05
S1132660009101463248334EB84794F8353023F090
S1132670080213F0200F84F8352005D12E48B04706
S11326806FF00D0003B0F0BDA38DB3F5107F04D23D
S11326902A48B0474FF0FF30F4E7B5B92848B047AF
S11326A03C20284B9847054608B92748F1E7A06223
S11326B02648B8473C220021254B28469847254BFD
S11326C09847686048B92448E3E72448B0476868F5
S11326D00028EFD0224B9847ECE7027A2149224B9D
S11326E042F0200202724422984743221D491F4BA4
S11326F0686898471E4B1F496868224698471E48D9
S1132700B04720461D4B984718B120461C4B9847AC
S1132710C0E794F8353043F0080384F83530B1E766
S11327208584000095960000DB970000D796000092
S113273058A400009585000076A4000094A400002D
S1132740D4A40000DD390000FBA4000021A5000092
S113275075840000D97300006AA500003EA500003E
S1132760A973000070AC0000B17000003573000064
S1132770A1730000C91A00008DA5000059170000BC
S1132780D925000010B5074B9847074B9847074BCE
S11327909847074B9847074B9847074BBDE81040AD
S11327A0184700BF65380000953A0000593B000007
S11327B0AD70000091440000296F00002DE9F04342
S11327C0314B85B0074689469046242100220120DA
S11327D09847064628B92D482D4B984705B0BDE8C3
S11327E0F0833C682B4D2C48A84714F10C031FBF01
S11327F0E07B217B627BA37B02BF18461A46194605
S113280000902648A8472648A84714F110030FBF94
S11328101846E07C217C627C18BFA37C009004BF36
S11328201A4619461D48A8471E4B0A209847756842
S1132830002385F8009085F801802B716B71AB71D2
S1132840EB713B6805F1080203F11C0153F8040B1A
S113285042F8040B8B42F9D100277189124BAF70F7
S1132860EF702846984704AA6880E36842F8043D5C
S1132870012301930097FF23394630460B4CA047B0
S113288030460B4BA9E700BF39400000B7A5000054
S11328909585000085840000F4A500000DA60000C5
S11328A01DA60000B5840000892B0000E93000005B
S11328B0993F00002DE9F04F4668524F3578DFF814
S11328C08C8105F00F05AD0087B0C5F1000A0FFA41
S11328D08AFA049151460446B847218908B9032964
S11328E003D84948494B984718E063681978A9B157
S11328F0082940F08280DFF844910499D9F8000057
S1132900434B00F0F00B9847CDF81490DFF840915A
S113291010B9BBF1E00F07D13E48C84720464346F3
S113292007B0BDE8F04F18473B48C8472389072B39
S113293001D83A48F1E72046394B984708B139485D
S1132940EBE7222120462DB2B84700284ED0294675
S11329502046B8470028E1D100222189324B0220C9
S11329609847834608B93148D7E72146304B984702
S11329700028D3D151465846DBF80460B8470028F4
S1132980CCD12046C0475C46059B62681B68F36057
S1132990284B1B6833610023137053884FF6F6717C
S11329A08B428CBF0933083353804FF0FF09002357
S11329B0B372F3721421204B86F80890304698477E
S11329C0294670812046B84702460028A6D1049BB8
S11329D0029301238DE80C001849194D4B462046FB
S11329E0A8470146002899D016487BE76FF02101DB
S11329F02046B847002891D1C6E75A781248034BBD
S1132A0098478BE7013F000022A600008584000060
S1132A10413100004FA6000087A6000098A60000E0
S1132A20992B0000BBA6000039400000EEA6000070
S1132A308D420000B8800020892B0000C080002057
S1132A40B92F000015A7000046A70000993F000019
S1132A50958500000A4604300321014B184700BF46
S1132A60BD2700000A4604300B21014B184700BF64
S1132A70BD27000013B5002310F00102ADF80630A5
S1132A801FD0994224DD431C00788DF807000139DA
S1132A900020012917DC02D11B788DF80630BDF81F
S1132AA00630034498B200EB134398B200EB134092
S1132AB022B103029BB2C0F30720184380B202B0D4
S1132AC010BD0346E4E733F8024B02392044E0E743
S1132AD01846E4E72DE9F84F4FF00008254DDFF8DC
S1132AE0A4B006468A4691461F46444646BBB8F102
S1132AF0000F04D023029BB2C4F307241C43D9F86B
S1132B000020DAF800301C4E100C10FA82F010FA93
S1132B1083F000EB134004443846B0470444BDF846
S1132B202800B047204484B204EB104084B204EB84
S1132B30104421461148A847E04380B2BDE8F88F0D
S1132B40326831465846A8470D4B718970689847DA
S1132B5072890444A0B2D30700EB144408D52202BE
S1132B60C8F1010892B2C4F307245FFA88F8144349
S1132B703668BBE785840000ED110000B4A70000AF
S1132B80752A000079A7000008B5024B9847C04396
S1132B9080B208BD752A0000F8B50025104F06461E
S1132BA02C4646B925B123029BB2C4F307241C4327
S1132BB0E04380B2F8BD71897068B84773892044D6
S1132BC084B2DB0704EB104407D52302C5F10105E9
S1132BD09BB2C4F30724EDB21C433668E1E700BF9F
S1132BE0752A0000114B37B51C688CB9104B1B6853
S1132BF01BB193F83520D20716D483784278017834
S1132C00C07800900B4D0C48A847204603B030BD57
S1132C1094F83530D90705D5626803685340A26833
S1132C201342F2D02468E0E71C46EEE77C900020D3
S1132C308090002085840000E7A700002DE9F04F74
S1132C402D4F44682D4D2E482E4E85B0A84738464A
S1132C50A847608894F8008094F80190B0474B46E8
S1132C6008F00F024FEA18110090DFF8B0802648F0
S1132C70C0473846A847A088B0478246E088B04796
S1132C808346E088B0470390E088B0478146E088F7
S1132C90B047039BC0F30C000190C9F34030CBF361
S1132CA0CF325146C3F3803300901848C0473846AA
S1132CB0A847608994F8089094F809A0B047524650
S1132CC0034649461248C0473846A847E07BA37BE1
S1132CD0627B217B00900F48C0473846A847E07CC0
S1132CE0A37C627C217C00900B48C04738462B466D
S1132CF005B0BDE8F04F184719A8000095850000FD
S1132D000EA80000F31100003BA8000076A8000004
S1132D10B2A80000EDA800001AA9000085840000F4
S1132D202DE9F04F45682F7888463909042985B084
S1132D30044606D07F48804B984720467F4B9847EF
S1132D4027E06888DFF86892C84707F00F076289B0
S1132D50BF009742064611D82389834212D33946CD
S1132D602846DFF850B2DFF8D0A1D847C0B13946C1
S1132D702846D84701467248D047DEE739467148AD
S1132D806D4B98472289964203D931466E486A4B67
S1132D90984720466D4B9847002005B0BDE8F08F5A
S1132DA031466B4B204698476A4B2A691A606A4A37
S1132DB0E96811600122464603929B46B36829697B
S1132DC0726821EA0300019002EA030000900B40BC
S1132DD06248D04796F83530DB0721D57368FBB1DC
S1132DE0DBF80000834216D196F8372096F83610A7
S1132DF05B48D047584F386800282DD04146594B7E
S1132E00984720B93B6803F0F003E02B24D15648DF
S1132E10564B9847BDE73146524B98470028E3D1BB
S1132E20039BE3B1524B1E68464508BF3668002336
S1132E300393002EC2D16B7A112BDBD12F447888F7
S1132E40C84701464B48D0477B88B3F5884FD1D15A
S1132E504948464B984746461EB94848D8E736681D
S1132E60E2E7EB8823F0C003EBB1A888C847064625
S1132E7068882789C8470390ED882846C847C0F367
S1132E800C00C000C5F340150190039B00953A4621
S1132E9031463B48D04720463A4B984704460028E1
S1132EA03FF47AAF4568314B3748384F384E98472E
S1132EB0224B20469847618922893648D0474146AB
S1132EC02046354BC7F800803560984770B96B7A57
S1132ED0062B13D0112B05D0012B13D141462046CC
S1132EE02E4B02E02E4B4146204698471A4A0023B7
S1132EF03B6033601360CBF800304DE74146204619
S1132F00284BF2E74146DBF80000164B984750B9CE
S1132F10DBF8003003F0F003E02B04D065600221FD
S1132F202046214B98472046084B9847697A1F480A
S1132F30D047DBE748A90000858400003D2C000051
S1132F4007AA000079A90000C7A90000993F000062
S1132F50B1410000C0800020B880002034AA0000E5
S1132F6077AA000041310000F2AA00009585000014
S1132F707C900020A4AA0000D2AA000018AB000094
S1132F8035AB00009133000095AB0000BC800020FD
S1132F90C4800020A0AB000015440000B528000048
S1132FA0657400004D5B0000552A0000C5AB0000AD
S1132FB0F3110000892B00002DE9F04F87B01C4667
S1132FC09DF844309DF84090019307468B46129E2D
S1132FD09046002A65D01421394A9047019B38B1A4
S1132FE03848394B98476FF0010007B0BDE8F08FBF
S1132FF07D6801902C726B72D8F80000286181B250
S11330004FEA104A452085F8019028704FEA0929B3
S113301049EA000944EA032438892C4B03910293BA
S11330209847019AAA71EA71294A6880029B019221
S11330304C44814610889847019AA88013880399C4
S113304001331380BBF1000F02D0DBF8003003B969
S11330507368EB60EB6814FA83F404EB13442144C3
S11330608A44CA44504483B203EB104000EB10403E
S1133070C043688196F8383096F8372096F83610B1
S11330801448154CA047154B38469847B38D7BB16F
S11330903A899A420CD9124B4246314638469847EF
S11330A0A3E743680DF118081B6948F8043DE1E7FC
S11330B00C48A0477369424639463046EFE700BFE3
S11330C0013F0000E9AB000095850000ED11000010
S11330D0281500201AAC0000858400003D2C000057
S11330E0C936000031AC0000F0B5054685B01F4676
S11330F010460F4B0E461446984758B9E078A3780B
S11331006278217800900B4C0B48A0476FF00300C5
S113311005B0F0BD9DF82C3001939DF82830029045
S1133120009322463B4631462846044CA047EFE72D
S1133130E52B00008584000041AC0000B92F00009D
S1133140431E033311D891F8353013F002030ED027
S11331504A6890420BD08B6842401A4207D1DB4345
S113316083430CBF012000207047012070470020DA
S113317070472DE9F347036801930DF103000DF146
S1133180070C0F4600254FF00A0E4FF02E08447826
S113319000230DF1080AB4FBFEF69A440EFB164414
S11331A0303403F101090AF8084C16F0FF045FFA01
S11331B089F917D100F8014FED1B3C46FF2B04EBB6
S11331C0050611D1964206F1010519DA604504F1AC
S11331D0010784F80080DAD100232370084602B086
S11331E0BDE8F0874B46D4E75F1E9642FFB207DA8C
S11331F002AE334413F8083C04F8013B3B46DDE7D8
S11332000020ECE710B50446406908B1034B984729
S113321021460620024BBDE810401847993F0000A4
S1133220413B00002DE9F047466873689A880446DC
S11332300F46002A2DD11A68426000F11C0100F1EA
S1133240080252F8040B43F8040B8A42F9D1012115
S11332503046164B9847164B30469847154B85B267
S1133260304698476668DFF84880DFF8489096B99A
S1133270114E33689C4223680CBF33603B60214687
S113328005200E4B9847B3885B1BB3802846BDE8E6
S1133290F0870025E6E773683046D3F800A0C047FE
S11332A005443046ADB2C8475646E0E7652A0000FB
S11332B005420000993F00002C150020413B00000E
S11332C02DE9F843DFF86880DFF8689006460F467A
S11332D000250024D8F80030214620464BB908B117
S11332E0C8470544BD4201DA012CF2DC2846BDE89A
S11332F0F883D6F80CE05A69724509D1D6F810E083
S11333009A69724504D1B3F80CE0B288964507D0A7
S1133310013458B193F81FE0C27F964598BF184610
S11333201A68002A18BF19461346D7E71846F7E764
S11333302C150020253200002DE9F8430E4B0F4ECA
S11333401C680F4FDFF8448000250CB9BDE8F883F2
S1133350E17F41B10139C9B2E1770A480A4B984784
S113336025462468F1E73046B847D4F80090204653
S11333702946C0474C46E8E72C15002091AC0000D4
S11333809585000074AC000085840000253200009F
S11333902DE9F04F4468237803F00F03052B85B023
S11333A0054603D0B348B44B984722E0B34EE088B7
S11333B0B34FB04701906088B04723780290284605
S11333C00393B847AF4A0097938803440A2B804677
S11333D0174615DD0146AC4B2046984718B1BB880B
S11333E043440A2B0CDD0A234246B988A748A84C5B
S11333F0A047A14BA74898472846A74B98472BE1DD
S1133400D7F800904FF0000AB9F1000F0ED1052053
S1133410DFF8ACB2D847814600283BD1414620466C
S1133420994B9847804530DD9C48BCE7E268D9F861
S11334301410914225D12269D9F81810914220D153
S1133440B9F80C20A08890421BD1B047904A01469D
S113345093489047E088B047C0F30C0090BBB9F89C
S11334600E00B047C0F30C0060B3224609F1080116
S113347004F1140052F8047B41F8047B8242F9D130
S113348020E0CA46D9F80090BEE70520D847814617
S11334900028C9D0202200214846824B98470322A5
S11334A089F81F203A68C9F80020C7F8009022461E
S11334B009F1080104F1140052F8047B41F8047B7B
S11334C08242F9D16F4A91888844A2F80480E18845
S11334D011F0200F144614D1039B99F81E20724852
S11334E003F00F01029BA3EB8101019B01EBC301DC
S11334F042F0010289B289F81E20A9F81C10644A1E
S11335009047D5F80480B8F80200B04798F80070E6
S113351007F00F07A0EB8707B8F80600B047C0F321
S11335200C00C000BFB26968D9F804608880074401
S11335300022BFB20A704A708A70CA70CF80012319
S113354026B9002A6DD1C9F804500EE0D6F804C09B
S1133550BCF80480404556D20E60002AF3D0D688C9
S113356086426CD847456AD8156099F81E20D20760
S11335706ED5002B6CD0D9F804205568AA88002A8F
S113358066D10A68002A52D1B9F81C202E68143278
S1133590A9F81C20294609F1080209F11C0052F877
S11335A0047B41F8047B8242F9D1404AB9F81C00FB
S11335B03F4FDFF81081904700226880AA71EA71BA
S11335C0AA72EA72284614213A4A90476881D9F8C7
S11335D00450002E42D12268374B9145D9F800207F
S11335E018BFCAF8002049464FF0050008BF226002
S11335F09847009B28469847A388181AA080284615
S113360005B0BDE8F08F1AD0BCF80660864216D823
S11336101AB1D288424518BF0023DCF80060624624
S11336208EE71560D288824218BF00239DE7506858
S1133630C988828891420BD102680146A2E7009BA7
S113364028469847A388181AA080134B2846984701
S1133650A1881A480E4B98470025D0E7D6F804B045
S11336606FF013013046B84731462846C047DBF8AF
S11336700060AEE7AFAC000095850000F3110000D8
S1133680054200002C150020C1320000DDAC000012
S113369085840000AEAD0000993F000044AD0000F9
S11336A017AD00007584000065AD0000ED11000049
S11336B0013F0000892B0000413B000092AD000057
S11336C0E93A0000214200002DE9F04F8FB08B8DC4
S11336D0089343680C92069307910546D888564B85
S11336E098472C89C0F30C030593143C00F4005351
S11336F00A93A3B20393089B0822143B93FBF2F3AF
S11337009BB20993DB009BB20B9300261427039B07
S11337101BB918460FB0BDE8F08F059B039AC3F39D
S11337200C0A0A9B43EA0A0A089B133B9342D4BF40
S11337300B9B039B04934FF000024FF014014FF0D6
S113374002003E4BD8BF4AF4005A9847804620B343
S1133750069B42681946143153F8040B42F8040BD3
S11337608B42F9D16B68D8F804903B446B606B8949
S1133770DF1B6F81049F002F32D06E89BE4228BFA9
S11337803E46B6B20EB92D68F5E706202C4B984795
S1133790834628B940462B4B98474FF0FF30B9E792
S11337A001966B6800930222034631460320264C9F
S11337B0A04720B959460620244B9847EAE70D90C4
S11337C0234B28469847BF1B224BCBF81030CBF82D
S11337D014500D99204B4046BFB29847002FD2D1C8
S11337E05046DFF87CA0D047049BA9F8060003F1FB
S11337F0140080B2D04789F80A70A9F8020089F849
S11338000B701421154B48469847079B0C9AA9F84E
S11338100A005B690798414698470A4B4046984717
S1133820039A049BD41AA3B20393099A059B1344E5
S11338309BB2059337466AE7F31100003940000054
S1133840E93A0000993F00007D3E0000413B000042
S1133850154200000532000021420000892B0000BF
S1133860ED1100000A4B0B4A23F003034FF47A6175
S11338700020588018715818506001201360198076
S113388083F8A40FA3F8A01FA3F8A21F93607047A6
S1133890CB80002034150020F0B418B91F48204B09
S11338A0F0BC18471F4A1368984202D35668B042C6
S11338B001D31D48F3E7002400F8044C30F8085CF9
S11338C09468A0F10801A14203EB050438BF91609C
S11338D0A1420ED0277967B9A6420AD09668B442AD
S11338E05C5B20F8084C5C5B08BF91601C44CD1AFB
S11338F0658030F8064C1D19A9420CD02E7956B9B2
S11339009668B14208BF956030F8082C1A5330F815
S1133910082C13445C80F0BC704700BFC3AD0000AA
S11339209585000034150020E3AD0000F8B503319F
S11339304FF6FC730B400B2B044604D9B3F57A6F96
S113394002D900240AE00C23214D2A68A24202D89D
S113395069688C4204D31F481F4B98472046F8BD22
S1133960A4F1080134F8086C891A89B2A6F1080098
S1133970401A80B29842E4D3F0D0971997F804E043
S1133980BEF1000F0BD101F108000344A868965B57
S11339909BB2874202EB03000DD1A8600BE003F158
S11339A014078742DAD801F1080003449BB2AF68D8
S11339B0D018B842F1D300250571D652418024F8BD
S11339C0083CD15AB1F57A6FC8D00A445380C5E790
S11339D034150020FCAD0000958500002DE9F04170
S11339E048B103304FF6FC7101400B2905D9B1F5FC
S11339F07A6F03D90020BDE8F0810C21224CA7681E
S1133A002268BB1A9BB2C1F57A6C6FF00708634554
S1133A1003DB1E4B1E489847ECE7D018D65A90F8A3
S1133A2004E0BEF1000F2CD1A8EB030535448D4210
S1133A3027D301F1140C65451DD30831194489B20B
S1133A40551885F804E056526B80012301800371F8
S1133A50535AB3F57A6F01D01A445180874207D183
S1133A6094E8060003461D790DB1934206D1A36084
S1133A700830BDE8F08101230371EFE71B880B4494
S1133A80F1E73346C3E700BF341500208584000006
S1133A9015AE00002DE9F043104A1148114C0023E3
S1133AA022F003029E46054604F1140C40F823E07C
S1133AB034F813809E004FEA430900218FB2B845C1
S1133AC004D801330A2BF1D1BDE8F083AF59176054
S1133AD039F80C70AA5101313A44EFE7431500203C
S1133AE0787E002040AE0000092810B507D90D4BA0
S1133AF00D490E480E4C40F28912A047FEE70D4BCB
S1133B0080000344D3F8684324B12268C3F86823CF
S1133B10204610BD084B1844054B816A0748984756
S1133B20F6E700BF90AE0000B3AE0000D7960000E9
S1133B3085840000107B002040AE0000D0AE000061
S1133B4039B1044B03EB8000D0F868330B60C0F844
S1133B5068137047107B0020704700002DE9FF4771
S1133B6006460C4699B10A6843689A420ED01C4B2B
S1133B701C48DFF88480DFF87890DFF880A098474D
S1133B80194B1D68BDB9194B1B6803BB24687460CD
S1133B90200E0290C4F307400190C4F30720009064
S1133BA0E3B296F8372096F83610114C1148A04726
S1133BB004B0BDE8F0872A687368EF689A4204D1BC
S1133BC029464046C8472846D0473D46DAE71A68A2
S1133BD022B171688A4204BF22681A60DB68D4E7A4
S1133BE09585000093AF00008C90002094900020F5
S1133BF085840000E8AF0000C1AF0000F94B00006D
S1133C001FB599B10B68C36090F8372090F836104F
S1133C10074C180E0290C3F307400190C3F307202A
S1133C200090DBB20348A04704B010BD0B46EAE79E
S1133C308584000024B000001FB599B10B6883602F
S1133C4090F8372090F83610074C180E0290C3F302
S1133C5007400190C3F307200090DBB20348A0475C
S1133C6004B010BD0B46EAE78584000060B0000094
S1133C7070B5044616461D46054B98473146204606
S1133C80044B984729462046034BBDE8704018472B
S1133C905D3B0000393C0000013C00002DE9F74386
S1133CA0DFF8F8E00A9F47629EF8007080F83870E9
S1133CB0002507F1010C0C9F0761044645608560EF
S1133CC0C56080F835508562C56105622B4F8EF85A
S1133CD000C01E4689469046B84720460B9B98472D
S1133CE0002848D1264B94F836101A6822602548DB
S1133CF094F83720244D1C60A847B9F1000F2BD04D
S1133D0099F8001099F8012099F8023099F8030005
S1133D1000901E48A8471E48A847B8F1000F20D0BD
S1133D2098F8001098F8012098F8023098F80300E9
S1133D3000901648A8471748A847BEB13178727852
S1133D40B378F07800901148A8470A20124B98479E
S1133D50204603B0BDE8F0834B464A4649464846F0
S1133D60D6E74346424641464046E1E733463246BB
S1133D7031463046E6E72C46EAE700BF713C0000D6
S1133D807C90002099B00000858400000DA60000FE
S1133D90BEB00000C8B00000B5840000A07E0020C2
S1133DA0064B186030B190F8361090F8372004486C
S1133DB0044B184727210A46F9E700BF80900020EA
S1133DC0CDB000008584000010B590F83530DA07D6
S1133DD0044612D443F0010380F83530C36903B1BB
S1133DE0984794F8353003F03003302B05D1211D6A
S1133DF02046024BBDE81040184710BD7179000001
S1133E0010B590F83530DA0704460DD523F00102D9
S1133E109B0680F8352001D5044B9847E3691BB114
S1133E202046BDE81040184710BD00BF457900008A
S1133E3000B1C161704700B1016270470A4B0022B2
S1133E4010B51A70094B1C6804B910BD636F43B1F7
S1133E50074B08489847084B606F984700236367EF
S1133E6010BDE468F0E700BF849000208C9000202F
S1133E709585000010B10000494500002DE9F84384
S1133E8006461C4F1C48DDF820901C460D46904603
S1133E90B847032E0FD8DFE806F0150211132223CA
S1133EA0033323F00303BDF82420591991420BDD99
S1133EB029461248B8470020BDE8F8830E23EFE7EF
S1133EC00023EDE73623EBE700222260B9F1000F6F
S1133ED00CD04B4463600223637384F80C80012389
S1133EE025816581E3812046BDE8F883C4F8049008
S1133EF0F1E700BF858400003FB1000060B100001D
S1133F0038B504460B46002938D0002836D000299D
S1133F100CDA4A42418992B2914208D2184B1949AB
S1133F2019481A4C40F20222A047FEE78AB2217BCC
S1133F30656809B103290BD1E91A04F11002914211
S1133F4061600FD21248114B98476560012038BD5B
S1133F5001390129FAD8002BF8DA61899142F5D3A5
S1133F60EA1A626061890B489AB21144618121891D
S1133F700A44228129466268044CA047002038BDC7
S1133F8092B10000B5B10000D7960000858400000E
S1133F90D3B100001AB200002DE9F047044630B94D
S1133FA01D481E4B984725462846BDE8F087014624
S1133FB01B4E1C48DFF87880DFF878901A4FB04722
S1133FC00025E289013A92B2E28102BB21464046D1
S1133FD0D4F800A0B047637B9B0708D5236920462B
S1133FE0984701355446EDB2002CEAD1DCE7237B37
S1133FF0032B03D121460920B847F2E7013B012BEB
S113400002D821460820F7E72046C847E9E72146B9
S11340100648B047C8E700BF3CB2000095850000E1
S1134020858400005DB20000413B000088B20000BE
S11340306CB20000993800002DE9F74F0446514F47
S1134040514888461646B847032C51D8DFE804F097
S11340500D02090B2225032E4AD8DFE806F0617D04
S11340607D080E25F7E70025F5E73625F3E7474EEB
S11340700920B047014604464548B847B14634B91B
S1134080444B01221A70204603B0BDE8F08F03218F
S113409062190D4425F00305C5F5BD6504351332D9
S11340A022F003024545A8BF454600236260012271
S11340B0658121732360A4F80880E281A8EB0505DB
S11340C0A2468B46002D08DC0123E38100236373A1
S11340D0224641463048B847D5E709200193C847EE
S11340E0019B38B92B4B01221A7020462B4B984761
S11340F00024C8E7AAB240F2EC518A4280F80CB01E
S113410043730360CAF80000028128BF0A4600F125
S11341101001416001214281C181AD1A8246D1E77B
S113412005F1130008F1030323F0030320F0030057
S1134130184480B21A4B984704460028A3D005447B
S11341401335002325F003054560A0F80880A0F886
S11341500A8003600373B7E708200C4B98470446B2
S113416038B9104B10491148012E18BF1946B847E9
S113417089E700234360A0F80880A0F80A80036060
S11341800673A1E785840000B5B20000E93A000097
S1134190CDB200008490002023B30000993F0000BA
S11341A0DD390000B1B200004FAF0000ECB20000F6
S11341B038B503898B42044618D90D46CB1A618958
S11341C08D4214D8237B4BB98D4207D061680B4BC9
S11341D0091B2944204689B2984704462068658112
S11341E0258108B1064B98470023236038BD2289F6
S11341F06D1A1A442281ADB22468E0E72D3900001B
S1134200993F000003460022D0B2013203B970473F
S11342101B68F9E710B1C3890133C38170470000FB
S113422010B500B141B9094B09490A480A4C40F29A
S1134230DF22A047FEE7204603890A890468134465
S11342400381002CF7D1016010BD00BF92B10000C2
S113425041B30000D79600008584000070B5074B79
S11342600C46054698472046054B98472246294662
S11342700448054BBDE87040184700BF21420000C8
S11342801542000076B30000858400002DE9F04754
S1134290334E0A4605460C4601463248B047B046FE
S11342A025B11CB12A8923899A4206D22E4B2F4963
S11342B02F4840F24B32C047FEE74FF0000ADFF8C8
S11342C0C490574666896B8961686868A6EB0A06DC
S11342D0DB1BB342B4BF9EB2B6B23246514438443B
S11342E0C8473744638956441FFA86FA53456B8995
S11342F098BF2468BFB298BF4FF0000ABB421FD1D9
S11343002D68E5B9ACB1184B1A49194840F2653229
S1134310C047FEE7628923899A4213D123688BB18F
S1134320114B1549124840F26A32C047FEE7002C8F
S1134330C8D1124B124898470020BDE8F0870027E7
S1134340002CE7D16A892B899A42F0D12B68002B83
S1134350EDD0054B0849064840F26E32C047FEE7EF
S113436085840000F2B3000092B1000005B400009F
S1134370D796000035B4000042B4000095850000D3
S11343806DB400005F8400002DE9F84388461746A9
S1134390054638B9194B1A491A481B4C40F2873262
S11343A0A047FEE739B1DFF86890002607B155B998
S11343B03046BDE8F883114B14491248124C4FF4AF
S11343C06272A047FEE733B169898B4203D35B1A5B
S11343D09BB22D68EAE76C896968E41AA4B2BC420E
S11343E028BF3C462246194408EB060026443C1BE1
S11343F0C847B6B2A7B20023EBE700BF92B10000F2
S11344008EB40000D796000085840000ADB400008F
S11344105F8400002DE9F84F43681A4D93F8098032
S11344202C68DFF86490DFF864A00746002614B90E
S11344302046BDE8F88F237C43451ED123681BB179
S1134440DAF80020934218D1D4F814B0BBF1000F6D
S113445013D04B463A462146A069D84738B176B1C5
S1134460E368F3602B68E3602C6001200027E368B5
S113447026460028DDD11C46D9E70020F7E70120B5
S11344803746F4E7A47E0020B8800020C0800020D6
S1134490704770B5016B858D846A02466B1A1819D2
S11344A0D38E40F66836B34294BFC31A831B002BE5
S11344B001DBD58570BD631A002B4FF00000D6BF19
S11344C0091BD085D18570BD838D0B449BB241F20D
S11344D0D062934270B594BF838582850C4B0446A9
S11344E00D46984740F2B353984206DDA37F43F04C
S11344F00203A3772046074B9847A28D064C074832
S1134500C2F5B6532946A4461033BDE8704060474F
S113451093440000B967000085840000DCB5000006
S113452010B5044658B1406818B1054B98470023AC
S1134530636021460420034BBDE81040184710BDBA
S1134540993F0000413B000038B5034C00B938BD29
S11345500568A0472846F9E72145000038B5044618
S1134560094B04209847054660B120462B4604F1C8
S1134570140250F8041B43F8041B9042F9D16868F4
S1134580024B9847284638BDE93A0000154200001E
S1134590037E012B70B5044629D90A2B27D0144871
S11345A0144DA847A36F33B11348A847134BA06F0A
S11345B098470023A367E36E0BB11148A847236F04
S11345C00BB11048A847636F0BB10F48A8470F4EB3
S11345D0606FB04700254FF6FF73A386E06E6567F2
S11345E0B047206FB047E5662567A4F86A5070BDF0
S11345F00DB60000958500001BB60000993F000031
S113460046B6000067B600008DB6000049450000BC
S11346102DE9F04FAC4EDFF814A333680133336057
S1134620AA4B1A78013285B01A709B46A84B0293A4
S11346301C68DFF8FC8274B9A648C047A64DDFF8B1
S1134640BC822C68DFF8BC920027002C40F07781F4
S113465005B0BDE8F08F4FF00009A048C0479BF8B3
S1134660003094F821209A4204D1E768002FE5D065
S11346703C46F2E784F82130237E022B94F846303E
S113468040F08F80062B40F08C809548C047012570
S1134690237E062B0BD1A37FDB0608D53368626A21
S11346A09B1A282B03D901358E48EDB2C047277ACF
S11346B017F0080720D0237E042B02D0072B40F0EC
S11346C0DE803168636AD4F89070C91A07F5242231
S11346D002F6B8424FF4FA70B2FBF0F2914240F2A3
S11346E0BD80E079A379627921797F4F009001350B
S11346F07E48B847EDB20127606F68B13368626ADB
S11347009A1AB4F9443003EB4303B2EB430F03D3D7
S1134710774B984700236367237E032B08D13368C4
S1134720626A9B1A282B03D901357248EDB2C0473F
S1134730237E092B40F0A5803368626A9B1AF02B14
S113474040F29F806C48C0476C4B20469847E36812
S1134750B9F1000F00F0EE80C9F80C304FB1A38B13
S11347600193638B00932246231DA16A206D644D3F
S1134770A8472369634AD4F88C5003932146022046
S1134780E768904700228AF8002025B1039B6FF068
S113479009011846A8479AF80030002B3FF466AF89
S11347A044E70C2B01D1584870E794F89550D5B1E3
S11347B0564A94F894302A440133D27BDBB29A42AD
S11347C084F8943001D9002562E7062D4FF00003E8
S11347D098BF013584F8943098BF84F895502046EA
S11347E04B4B9847EFE7B4F93430002BA4BF0133A7
S11347F0A386236F002BE6D0B4F93410B4F9442017
S11348009142E0DB384B43489847237E022B0DD07E
S1134810B4F94020B4F9423094F8461003EBE203B3
S11348203A4A0A44D27D9340A4F844300023B4F8B1
S11348304C20A386B4F86030934228BF1346E28E1E
S1134840A4F84C205B0851008B42A4F84E3020465B
S1134850B8BFA4F84E10304B984719E794F8963037
S11348602E4A02FB0373B3FBF0F3994207D92C4B96
S11348702046984794F89630013384F89630002700
S11348803AE7002D7FF460AFE37F94F82020E768D7
S11348900133DBB29A42E37714D8E5772148C04765
S11348A0D4F888308AF80050002B46D0214620697D
S11348B098479AF80030002B7FF4B8AE10B9204620
S11348C0194B9847A146D1E690900020A87E00207D
S11348D08C900020B1B60000A0900020CDB600005E
S11348E0F0B6000060B70000858400008EB70000B9
S11348F049450000D7B7000003B800009145000007
S1134900896A0000413B000015B7000004B50000AF
S11349101D6D00003BB70000416B0000F82401004E
S1134920616C00002FB80000B96700008890002077
S113493095850000029A136010E72846B9E73368AA
S1134940626A9B1AF02B0AD82746E4687DE6FB606E
S1134950D4F80CA021460220C847544675E62046E8
S1134960C047E368002FF2D12B60F1E703688B4264
S113497010B50C4617D1CB6803600023E3602046D2
S1134980124B9847237E0A2B0AD0012B08D0A37F11
S1134990DA0705D543F00203A37720460C4B98476A
S11349A00023237610BD0B4A002113601BB9002994
S11349B0E3D01360E1E7D868844204D101B1136005
S11349C0E268DA60D9E701210346EFE79145000088
S11349D0B96700009890002037B5037E044600298B
S11349E041D0042B01D0072B3DD1A26F22B9A18D58
S11349F041F2D062914236D0A38B0193638B009332
S1134A002246231DA16A206D424DA847424B2046F1
S1134A109847424A13689C4202D1E36813600CE051
S1134A203F4A002113600BB939B1F7E7D8688442D3
S1134A3016D101B11360E268DA603A4B01221A70B0
S1134A40237E0025042BE5603AD10A232376364BD6
S1134A501A68E2601C60354B9847002003B030BDF3
S1134A6001210346DFE7072BF7D801A252F823F010
S1134A70914A0000CD4A0000DF4A0000EF4A0000DE
S1134A80EF4A00005B4A00005B4A0000054B00004F
S1134A90638BABB1264A13689C4202D1E36813606E
S1134AA00CE01F4A002113600BB939B1F7E7D8684D
S1134AB0844208D101B11360E268DA600023E36044
S1134AC02146022008E001210346EDE7214619486A
S1134AD0194B984721460320184B9847BDE7164BBE
S1134AE00E48214698470F4B01221A70E8E72046EA
S1134AF0134B98470028B1D1052323762046114B48
S1134B009847AAE720460E4B98470028A6D10923C8
S1134B10F3E700BF896A0000914500008C900020F3
S1134B209890002088900020A0900020996E0000AA
S1134B309C900020949000206D490000413B0000AF
S1134B40D1660000B9670000037E0A2B2DE9F34704
S1134B50224B234E04468A4609D1014621489847F0
S1134B6021460220334602B0BDE8F0471847D0F88A
S1134B705080D0F82890D0F88C50076901461A4824
S1134B8098471A4B206F01221A7008B1184B9847A6
S1134B90E06E08B1164B9847606F08B1144B984704
S1134BA0BAF1000F0AD0A38B0193638B00934046A4
S1134BB0231D22464946DFF83C80C0472146022097
S1134BC0B0473DB16FF0090138462B4602B0BDE84D
S1134BD0F047184702B0BDE8F08700BF6D490000F8
S1134BE0413B0000A09000208C9000208890002081
S1134BF049450000896A00000121014B184700BFA4
S1134C00494B0000034B044A58681268104458602A
S1134C10704700BF04000020909000202DE9F0416F
S1134C208046444D444F0220A847044600282DD115
S1134C30424B43489847434B38681B682246002B35
S1134C4061D134B1404B4148214698472046404BFE
S1134C5098470220A8470446C0B941463D483A4E09
S1134C60B0473D4BD7F800C01B684FF07F0E22467B
S1134C70002B50D12CB121463848B0472046344B44
S1134C8098470220A8470446002839D098220021DA
S1134C90334B2046984740F66833A4F8663041F217
S1134CA0D063A385E385FF23A3724FF40673E386E1
S1134CB00623A4F84430A4F842304FF6FF730021D1
S1134CC0A3860123A4F84C3084F81980254BA4F85A
S1134CD068106172A4F8401098473B686362224BE5
S1134CE0A0651B7884F82130204BC4F88030204B19
S1134CF02065A064E065E177C4F8903084F89610EC
S1134D002046BDE8F081596A411A914224BF1C46ED
S1134D100A46DB6893E7587E804509D3704507D877
S1134D20596AACEB0101914222BF86460A461C46F1
S1134D30DB689DE7E93A000090900020958500002B
S1134D4050B80000A09000208584000083B80000C3
S1134D50F94B0000BCB800008C900020F3B80000B0
S1134D6075840000054C0000A87E0020F14D000071
S1134D7000DD6D0010B5074B04460846984730B176
S1134D80838D23B1283B9BB29C4228BF1C462046FE
S1134D9010BD00BFE52B0000034B03EB8000034B69
S1134DA0416A0348184700BF04B500008584000029
S1134DB067B9000010B50446094B0A489847207E9D
S1134DC0094B9847237E012B1EBFA37F43F010039A
S1134DD0A37720460121054BBDE81040184700BFCA
S1134DE08584000072B90000994D0000D949000083
S1134DF010B5084614463AB1064B11899847204627
S1134E00054B9847002010BD002BFBD1034BBDE898
S1134E1010401847C9440000993F0000B54D0000F8
S1134E202DE9F047866F1F4F96F80DA004464FF00A
S1134E300009C0F878901C48B847D4F88080B8F1CD
S1134E40000F1ED04B46324621462069C047054616
S1134E50F0B91AF0200F11D0A38DD4F8805041F28C
S1134E60D06293421CBF0133A3853DB100231A468F
S1134E7021462069A84710F10A0F00D00020BDE8A0
S1134E80F0874346324621464046084DA847DEE7B0
S1134E9010F10A0F04D10648B8472846BDE8F08748
S1134EA0A667EBE79585000089B90000F14D000085
S1134EB0A7B900002DE9F84F1B4D1C4E2B78DFF8E5
S1134EC0788001332B703468194FDFF870902B7899
S1134ED00CB9BDE8F88F94F821209A42F8D084F8F0
S1134EE02130A37FDB070BD53846C047A37F43F0AF
S1134EF00203A3772046C847A37F23F00303A377C5
S1134F00A36FD4F80CB00BB95C46E0E7DFF830A02F
S1134F1000238AF800302046064B98479AF8003060
S1134F20002BF1D0CFE700BFA87E00208C9000209A
S1134F30DFB90000214E000095850000B96700002C
S1134F4088900020074B10B59847074A53780133DF
S1134F50DBB25370DB0703D5044BBDE810401847A0
S1134F6010BD00BFB54E0000A87E00201146000011
S1134F7010B50446E00702D51548164B9847A1071B
S1134F8002D51548134B9847620702D51348114BB5
S1134F909847230702D512480E4B9847E00602D5DE
S1134FA010480C4B9847A10602D50F48094B984767
S1134FB0620602D50D48074B9847230602D50C48D4
S1134FC0044B98470A200B4BBDE81040184700BF1C
S1134FD0F8B9000085840000FDB9000002BA0000A1
S1134FE007BA00000CBA000011BA000016BA00009B
S1134FF01BBA0000B58400002DE9F04F374F384E3E
S1135000384DDFF804918BB004463748B047384632
S1135010B0472088A84780466088A8474146024692
S1135020DFF8E8803148C0473846B0476068C84771
S113503001462F48C0473846B047A068C8470146D4
S11350402C48C0473846B047A089A8470690A08995
S1135050A8470990A089A8470890A089A847814635
S1135060A089A8478246A089A8478346A089A84763
S11350700790E089A8470799089B099A049001F0D2
S113508001010391CBF340010291CAF38001019124
S1135090C9F3C001009106991748C2F34012C1F345
S11350A00F31C3F30013C047A089A847134B00F086
S11350B03F0098471248B0473846B047208AA8476F
S11350C08146608AA847494602460E48C04738468A
S11350D033460BB0BDE8F04F184700BF19A80000D5
S11350E095850000F311000020BA00002CBA0000DE
S11350F063BA00008ABA0000B1BA0000714F000020
S1135100F1BA0000F9BA0000FD1100008584000026
S11351102DE9F84F03691F4E054698890C46B047A0
S1135120C2071BD41C4FDFF87C80DFF87C90CCB125
S1135130D4F810E038682B89DEF80410228903447F
S11351400A449A1A002A10DA5B1A002B0ADD091A9B
S113515089B229816868114B984703E02046104BB7
S1135160984700242C60BDE8F88FBEF80C00B047C7
S1135170C30709D5D5F810B00120BBF80CA0C0476F
S11351804AEA0000ABF80C00D4F800A02046C84757
S11351905446CCE7F3110000AC7E0020B14100007E
S11351A049450000ED110000214500002DE9F14FB3
S11351B0A34D2B79DE06044670D5436DB0F860200C
S11351C0816D28681E1A002E0CDB834203D1AB6864
S11351D0CB1A002B06DBAB6899421BD1EB68DB8949
S11351E0934217D9EB68B4F86270DE896065B74200
S11351F0A868A065A4F8606038BFA4F8626094F859
S11352009500002E40F0118120B984F894600123A8
S113521084F89530AF68A06C8A4E3B1A002B00F3DB
S113522031810023A4F864302B8A002B40F00B84D6
S11352305318B4F86020A16D0A44934240F00384EB
S1135240B4F93430002BC0F2FE83874240F0FB8374
S113525094F84720531CDBB29A4238BF84F8473095
S113526094F84730032B40F2E580B4F84C20E38EE9
S113527013449BB29A4201D2A4F84C30724FDFF827
S1135280D481E36E002B40F0BB81E26BAB68A16B71
S11352906E48B047A26B002A40F00D822E8AA26AA3
S11352A0002E00F0C383237E062B00F2BF832968FF
S11352B0531A012B00F13982C1F10100801B104403
S11352C0002800F33282A86942899342194640F3C8
S11352D02A8203895B1A9BB200264289914200F319
S11352E01D82494209B25A4B9847A98B2B68A26A7E
S11352F02A600B449B1AAB836B6A5A602968A26AC2
S11353008B1A002BC0F28C834B1CA08D9B1A1B1A8A
S1135310002B00F38583914240F0D1826B6A4D4E9D
S11353209889AF8BB04710F0030218BF01223A44AA
S1135330A38D92B29A422A8233D9A16A4648414F38
S11353400B442968B8476B6A9889B047C3070ED5E0
S1135350D5F82480B8F80C703846B0473F4B00F0BD
S11353603E00984727F47C570743A8F80C70A38D98
S1135370AB836B6A9889B047870748BFAB8BA86932
S113538044BF03F1FF33AB83A98B354B98476B6A5A
S1135390AF8B9889B04710F0030018BF0120074471
S11353A02F82636F6BB16B6A9889B047C00740F175
S11353B0CC812C482C4B2D4F9847606F002840F02F
S11353C0C081298AA38D2A68294F0A445B1AA262E4
S11353D0A3852046B847AB691A89B84612B1AB62B7
S11353E00023AB616B6A9889B047C70708D51E4B89
S11353F02048984795F82C3043F0200385F82C304A
S1135400DFF87890DFF878A0676F2FB13A69A16A66
S113541053688B4200F00E82A37FD90740F1498282
S113542023F0010343F0020345E200283FF4F2AE07
S11354300023EDE67FF422AF20460F4B98471DE78B
S1135440AC7E002085840000FD11000085BC0000B6
S1135450013F0000F311000032BD0000ED11000017
S1135460B14100007FBD000095850000214500008A
S113547093440000B7BD0000D16B0000214200003E
S1135480D2BD0000226DBA1A002A00F3B580A27FB3
S1135490A764500741BF22F00402A277B4F84E205B
S11354A0A4F84C20B4F94000B4F8422002EBE00226
S11354B0A4F84420B4F866209BB2A4F864301344E2
S11354C0A4F86630237E0021032B84F8461084F868
S11354D047100FD9B4F84C20B4F84E309342E38E01
S11354E09CBF5B4393FBF2F313449BB29A4238BFD5
S11354F0A4F84C30226F5AB313695868AC4B9847E0
S11355008046236F93B11B695868A94B9847226F53
S11355101369B2F808A081469889A64B984710F001
S1135520030018BF012000EB0A034B4442463946EE
S1135530A148DFF87C829F4FB047236F53B9226F95
S11355400023002A56D14FF6FF72A286E37795E630
S11355509046D6E71B695868C047236FB3F808B074
S11355601B6982469889B847AB6810F0030018BFDE
S113557001205844AAEB030318440028DFDC236FFE
S11355801B695868C047236F1B6982465868C04727
S1135590236FB3F808901B6983469889B84710F0C5
S11355A0030018BF012000EB090251465A44834806
S11355B0B047D4F870A0DAF800302367B4F8643048
S11355C05BB1DAF810309889B847C10742BFB4F824
S11355D0643003F1FF33A4F86430DAF80400784B44
S11355E09847B4F86830181AA4F86800754B504608
S11355F09847A2E7A386A9E70023A4F864303DE610
S11356001B69D5F808905868B847E26E1369B2F878
S113561008A083469889C04710F0030018BF0120F2
S1135620A9EB0B0350441B1A002BFFF62EAEAB68FC
S1135630226D9B1A002B3FF728AEE36E1B69586856
S1135640B847E36E1B6981465868B847E36EB3F800
S113565008B01B6982469889C04710F0030018BF40
S11356600120584400EB0A0249465748B047D4F891
S11356706C90D9F80030E3660BB9A4F86A30B4F83A
S113568064305BB1D9F810309889C047C20742BF73
S1135690B4F8643003F1FF33A4F86430D9F804009B
S11356A0474B9847B4F86830181AA4F86800454B7B
S11356B048469847E5E5E36BA9685B1A002BBFF6FB
S11356C0EDAD424B42481F68BF1ABFB239B24FF426
S11356D0FA724A43B047B4F94000B4F94230A7EB38
S11356E0E00292B211B200291044BCBF524211B27E
S11356F0A3EBA303194400B289B2A4F8421001EB4E
S1135700E00109B24FF4FA72A4F84000A4F844107E
S11357104A433048B0470023A363BFE50381468171
S1135720891A0068D9E55942DCE58B1A002BBFF6CB
S1135730E5AD294B29489847A37F43F00203A3779B
S1135740DCE503686367B84737E6676FDFF8948082
S1135750DFF8709057B3D7F810E028682B8ADEF88A
S11357600420398903441144591A00293CDA9B1A4C
S1135770002B1BDD6B6A121AAA839889B047830732
S113578048BFAB8BA86944BF03F1FF33AB83A98B3C
S1135790134B98476B6AB5F81C809889B04710F092
S11357A0030018BF01208044A5F81080676708E64D
S11357B0FD110000F3110000F9BB000028BC00003B
S11357C0054200002145000057BC000090900020D5
S11357D0B4BC0000E8BC00008584000011BD0000DA
S11357E0B1410000ED110000BEF80C00B047C10744
S11357F01AD56B6A9889B047820715D4D5F824B0B6
S11358000120BBF80CA0C0476B6A4AEA0000ABF861
S11358100C009889B5F81CA0B04710F0030018BF1D
S113582001208244A5F810A0D7F800A03846C84744
S113583057468FE72B609089B7F808B0B04710F04F
S11358400300A36A3A6918BF012058441844A062AF
S11358509089B7F808B0B04710F00300A38D18BFC3
S113586001205844181AA0852046C04779680B893E
S113587023B1A86AD8B1C84700237B603B699889E3
S1135880B047C0070DD5724B5046984795F82C3059
S113589043F0200385F82C30237E042B04BF072318
S11358A023763B68636738466A4B9847ACE5A96240
S11358B0E2E743F00103A37701B0BDE8F08F20468F
S11358C0654B9847666F26B96448654B984760678F
S11358D0F2E72B68002703F1FF3E03F1010C306966
S11358E04168994214D1AA8B33899A42E4D95B481E
S11358F05B4B98470028DFD047B138603146594B9D
S113590001B0BDE8F04F18471646E8E76067F5E7D1
S11359104FB95A1A002A28DA5048514B98470028A0
S1135920CAD06067EAE73A695268AEEB0202002A1D
S11359301BDBACEB0102002A17DC4848484B9847B4
S113594004460028B8D03B6929685A683B89134447
S11359505B1A002B05DD891A89B239817868424BBC
S113596098473C6031462046C9E732683746002AEA
S1135970CAD15B1A002B9FDD80893C4FB847C20710
S11359809AD43648364B98473060002894D033690F
S113599029685A68338913445B1A002B05DD891A78
S11359A089B231817068304B9847A06A2A8A296885
S11359B0A38D0344501898427FF67EAF2C48DFF83D
S11359C0B880C04733681B699889B847C30710D5A6
S11359D03368D3F81090B9F80C804046B847254B8B
S11359E000F03E00984728F47C5848EA0008A9F8DB
S11359F00C80A18D2A683368891AA26A58681144F8
S1135A0089B21981184B984733681C891B69988996
S1135A10B84710F0030018BF012004442C824BE760
S1135A200D4B204601B0BDE8F04F18472B68991A7A
S1135A30002906DB01339B1AA28D9B1A002B7FF7EA
S1135A403BAFA37FEEE4002384F8473016E400BFA5
S1135A50958500002145000025670000C07E0020D8
S1135A605D45000011510000B1410000F311000038
S1135A7032BD0000ED110000858400002DE9F14FD6
S1135A802A4D2B4CEE688046B089A047C0F30F30F6
S1135A9005280FD9EB68274F9889DFF8A890DFF81D
S1135AA0A8A0A047050B053DAD001436ADB20024F7
S1135AB0A54202D801B0BDE8F08F335D012B11D0AF
S1135AC00AD3022B06EB040B11D05046B8479BF8BF
S1135AD00130ABB11C4427E017483B4601B0BDE898
S1135AE0F04F184701344846A4B2B847E0E71348DA
S1135AF0B8479BF80130042B02D1E31CAB4201DB15
S1135B000F48EAE79BF802209BF8033043EA02239C
S1135B105A1E92B240F2B45140F2B350824288BF4E
S1135B200B46A8F800300434A4B2C1E7AC7E0020D0
S1135B30F311000095850000EDBD000011BE0000CA
S1135B4023BE0000FFBD00003CBE00002DE9F04F65
S1135B5005464068A14E0378306303F00F0300EB61
S1135B60830085B0DFF8CCA2F0608846D047336B61
S1135B70DFF8C492197801F00F01890049422846E0
S1135B80C8473446298908B9132908D89448954B3D
S1135B909847954B284605B0BDE8F04F1847934FFA
S1135BA0934B3868414698470028F2D13B6803F08C
S1135BB0F003E02BEDD0DFF84C822B8900933A46BA
S1135BC0062341462846DFF874B2D84768B12B89CA
S1135BD000933A46414606232846D847814B01465E
S1135BE084489847F068D047D3E7F368824E988991
S1135BF0B047000BC0EB8030810009B22846C8478B
S1135C00B046834618B17D487D4B9847C1E7E668A6
S1135C10DFF82CA23088C0473080E6687088C0471F
S1135C207080E6687068D0477060E6682060B0688D
S1135C30D047B060E668A060F089C047E368F081AF
S1135C409889C0476F49704A0F686849D2F800E0E4
S1135C500968C0B200F03F03237110F003002B89E0
S1135C6018BF01201844E3682082764658469146BE
S1135C7016B9664A166895E0B6F81CC01A889445A9
S1135C8050D1B6F81AC05A8894454BD17268BA42BA
S1135C9048D132688A4245D128B1F368C3605A4B6F
S1135CA0C6F80CE01E605A484E4FDFF85491B847CE
S1135CB0E3689889C047574B00F03F00984756481F
S1135CC0C847002E00F0AB83307EDFF87881C047F0
S1135CD000232A896361A36284F82C302379A28388
S1135CE0E2686262190748BF6B7BA56144BF43F059
